:1000000000308A0019280000213084008313000882
:10001000031918280130F800F701F70B0D28F80B29
:100020000C284A30F700F70B13281628800B0A28F3
:10003000080003081F398300831603170908C03915
:10004000890003131F129F120030031788008312C8
:100050008701880189018313831603130611831214
:1000600006156430A10004208316061183120611C0
:100070006430A1000420831606148312061C4F2846
:1000800083160611831206153230A1000420831650
:100090000611831206113230A10004203B2883167A
:1000A00086148312861C6C282008A003A1008316E6
:1000B00088018312210888000130A1000420200853
:1000C000003C0319A00183168614831286186C283D
:0E00D0000130A1000420632803172C286300D0
:04400E00E12CFF3F63
:00000001FF
;PIC16F887
;CRC=15D2  CREATED="16-ago.-22 16:12"
